{
  "contractName": "NFTProduct",
  "abi": [
    {
      "inputs": [],
      "stateMutability": "nonpayable",
      "type": "constructor"
    },
    {
      "anonymous": false,
      "inputs": [
        {
          "indexed": false,
          "internalType": "address",
          "name": "user",
          "type": "address"
        },
        {
          "indexed": false,
          "internalType": "address",
          "name": "creater",
          "type": "address"
        },
        {
          "indexed": false,
          "internalType": "string",
          "name": "_ipfs",
          "type": "string"
        },
        {
          "indexed": false,
          "internalType": "uint256",
          "name": "_price",
          "type": "uint256"
        },
        {
          "indexed": false,
          "internalType": "int128",
          "name": "_id",
          "type": "int128"
        },
        {
          "indexed": false,
          "internalType": "string",
          "name": "_hash",
          "type": "string"
        }
      ],
      "name": "BuySuccess",
      "type": "event"
    },
    {
      "anonymous": false,
      "inputs": [
        {
          "indexed": false,
          "internalType": "address",
          "name": "user",
          "type": "address"
        },
        {
          "indexed": false,
          "internalType": "address",
          "name": "creator",
          "type": "address"
        },
        {
          "indexed": false,
          "internalType": "address",
          "name": "from",
          "type": "address"
        },
        {
          "indexed": false,
          "internalType": "uint256",
          "name": "_price",
          "type": "uint256"
        },
        {
          "indexed": false,
          "internalType": "int128",
          "name": "_id",
          "type": "int128"
        },
        {
          "indexed": false,
          "internalType": "uint256",
          "name": "_roy",
          "type": "uint256"
        }
      ],
      "name": "ResellSuccess",
      "type": "event"
    },
    {
      "anonymous": false,
      "inputs": [
        {
          "indexed": false,
          "internalType": "int128",
          "name": "ID",
          "type": "int128"
        },
        {
          "indexed": false,
          "internalType": "string",
          "name": "Name",
          "type": "string"
        },
        {
          "indexed": false,
          "internalType": "address",
          "name": "CreateHash",
          "type": "address"
        },
        {
          "indexed": false,
          "internalType": "uint256",
          "name": "Price",
          "type": "uint256"
        },
        {
          "indexed": false,
          "internalType": "int128",
          "name": "Num",
          "type": "int128"
        },
        {
          "indexed": false,
          "internalType": "string",
          "name": "Topic",
          "type": "string"
        },
        {
          "indexed": false,
          "internalType": "int16",
          "name": "Royalties",
          "type": "int16"
        },
        {
          "indexed": false,
          "internalType": "string",
          "name": "IpfsHash",
          "type": "string"
        },
        {
          "indexed": false,
          "internalType": "string",
          "name": "Description",
          "type": "string"
        },
        {
          "indexed": false,
          "internalType": "string",
          "name": "Hash",
          "type": "string"
        }
      ],
      "name": "Success",
      "type": "event"
    },
    {
      "inputs": [],
      "name": "CreateHash",
      "outputs": [
        {
          "internalType": "address",
          "name": "",
          "type": "address"
        }
      ],
      "stateMutability": "view",
      "type": "function",
      "constant": true
    },
    {
      "inputs": [],
      "name": "Description",
      "outputs": [
        {
          "internalType": "string",
          "name": "",
          "type": "string"
        }
      ],
      "stateMutability": "view",
      "type": "function",
      "constant": true
    },
    {
      "inputs": [],
      "name": "ID",
      "outputs": [
        {
          "internalType": "int128",
          "name": "",
          "type": "int128"
        }
      ],
      "stateMutability": "view",
      "type": "function",
      "constant": true
    },
    {
      "inputs": [],
      "name": "Ipfshash",
      "outputs": [
        {
          "internalType": "string",
          "name": "",
          "type": "string"
        }
      ],
      "stateMutability": "view",
      "type": "function",
      "constant": true
    },
    {
      "inputs": [],
      "name": "Name",
      "outputs": [
        {
          "internalType": "string",
          "name": "",
          "type": "string"
        }
      ],
      "stateMutability": "view",
      "type": "function",
      "constant": true
    },
    {
      "inputs": [],
      "name": "Num",
      "outputs": [
        {
          "internalType": "int128",
          "name": "",
          "type": "int128"
        }
      ],
      "stateMutability": "view",
      "type": "function",
      "constant": true
    },
    {
      "inputs": [],
      "name": "Price",
      "outputs": [
        {
          "internalType": "uint256",
          "name": "",
          "type": "uint256"
        }
      ],
      "stateMutability": "view",
      "type": "function",
      "constant": true
    },
    {
      "inputs": [],
      "name": "Royalties",
      "outputs": [
        {
          "internalType": "int16",
          "name": "",
          "type": "int16"
        }
      ],
      "stateMutability": "view",
      "type": "function",
      "constant": true
    },
    {
      "inputs": [],
      "name": "Topic",
      "outputs": [
        {
          "internalType": "string",
          "name": "",
          "type": "string"
        }
      ],
      "stateMutability": "view",
      "type": "function",
      "constant": true
    },
    {
      "inputs": [],
      "name": "UserHash",
      "outputs": [
        {
          "internalType": "address",
          "name": "",
          "type": "address"
        }
      ],
      "stateMutability": "view",
      "type": "function",
      "constant": true
    },
    {
      "inputs": [
        {
          "internalType": "string",
          "name": "_name",
          "type": "string"
        },
        {
          "internalType": "uint256",
          "name": "_price",
          "type": "uint256"
        },
        {
          "internalType": "int128",
          "name": "_num",
          "type": "int128"
        },
        {
          "internalType": "string",
          "name": "_topic",
          "type": "string"
        },
        {
          "internalType": "int16",
          "name": "_roy",
          "type": "int16"
        },
        {
          "internalType": "string",
          "name": "_des",
          "type": "string"
        },
        {
          "internalType": "string",
          "name": "_ipfs",
          "type": "string"
        },
        {
          "internalType": "string",
          "name": "_hash",
          "type": "string"
        }
      ],
      "name": "DeployedNFT",
      "outputs": [],
      "stateMutability": "nonpayable",
      "type": "function"
    },
    {
      "inputs": [
        {
          "internalType": "address payable",
          "name": "_creator",
          "type": "address"
        },
        {
          "internalType": "string",
          "name": "_ipfs",
          "type": "string"
        },
        {
          "internalType": "uint256",
          "name": "_price",
          "type": "uint256"
        },
        {
          "internalType": "int128",
          "name": "_id",
          "type": "int128"
        },
        {
          "internalType": "string",
          "name": "_hash",
          "type": "string"
        }
      ],
      "name": "BuyNFT",
      "outputs": [],
      "stateMutability": "payable",
      "type": "function",
      "payable": true
    },
    {
      "inputs": [
        {
          "internalType": "address payable",
          "name": "from",
          "type": "address"
        },
        {
          "internalType": "address payable",
          "name": "_creator",
          "type": "address"
        },
        {
          "internalType": "int128",
          "name": "_nftid",
          "type": "int128"
        },
        {
          "internalType": "uint128",
          "name": "_roy",
          "type": "uint128"
        }
      ],
      "name": "ResellNFT",
      "outputs": [],
      "stateMutability": "payable",
      "type": "function",
      "payable": true
    }
  ],
  "bytecode": "0x608060405234801561001057600080fd5b5033600460006101000a81548173ffffffffffffffffffffffffffffffffffffffff021916908373ffffffffffffffffffffffffffffffffffffffff160217905550611394806100616000396000f3fe6080604052600436106100c25760003560e01c806355b41b4e1161007f5780638191745f116100595780638191745f1461022a5780639dfde20114610255578063b3cea21714610280578063f03c0db8146102ab576100c2565b806355b41b4e146101b85780635aabb8a6146101d45780638052474d146101ff576100c2565b8063119ca631146100c7578063124539dd146100f057806318c25d4a1461011b5780633879ad43146101375780634237c65b146101625780634fa747dd1461018d575b600080fd5b3480156100d357600080fd5b506100ee60048036038101906100e99190610b8f565b6102d6565b005b3480156100fc57600080fd5b5061010561048e565b6040516101129190610d4c565b60405180910390f35b61013560048036038101906101309190610a85565b6104b4565b005b34801561014357600080fd5b5061014c6105e7565b6040516101599190610f2c565b60405180910390f35b34801561016e57600080fd5b50610177610675565b6040516101849190610e37565b60405180910390f35b34801561019957600080fd5b506101a2610688565b6040516101af9190610f11565b60405180910390f35b6101d260048036038101906101cd9190610ae8565b61069b565b005b3480156101e057600080fd5b506101e961072a565b6040516101f69190610d4c565b60405180910390f35b34801561020b57600080fd5b50610214610750565b6040516102219190610f2c565b60405180910390f35b34801561023657600080fd5b5061023f6107de565b60405161024c9190610f2c565b60405180910390f35b34801561026157600080fd5b5061026a61086c565b6040516102779190610f4e565b60405180910390f35b34801561028c57600080fd5b50610295610872565b6040516102a29190610e37565b60405180910390f35b3480156102b757600080fd5b506102c0610883565b6040516102cd9190610f2c565b60405180910390f35b60008081819054906101000a9004600f0b809291906102f4906111e5565b91906101000a8154816fffffffffffffffffffffffffffffffff0219169083600f0b6fffffffffffffffffffffffffffffffff160217905550508760019080519060200190610344929190610911565b5033600460006101000a81548173ffffffffffffffffffffffffffffffffffffffff021916908373ffffffffffffffffffffffffffffffffffffffff1602179055508660028190555085600360006101000a8154816fffffffffffffffffffffffffffffffff0219169083600f0b6fffffffffffffffffffffffffffffffff16021790555084600690805190602001906103df929190610911565b5083600960006101000a81548161ffff021916908360010b61ffff1602179055508160089080519060200190610416929190610911565b50826007908051906020019061042d929190610911565b507fa92aea13a8729701cc896ec21e40fb53bb2c2757ce09d8208fb3853a46f952cf60008054906101000a9004600f0b89338a8a8a8a898b8a60405161047c9a99989796959493929190610e52565b60405180910390a15050505050505050565b600460009054906101000a900473ffffffffffffffffffffffffffffffffffffffff1681565b8373ffffffffffffffffffffffffffffffffffffffff166108fc8260646104db9190611071565b6fffffffffffffffffffffffffffffffff166064346104fa9190610fe6565b6105049190611017565b9081150290604051600060405180830381858888f1935050505015801561052f573d6000803e3d6000fd5b508273ffffffffffffffffffffffffffffffffffffffff166108fc826fffffffffffffffffffffffffffffffff1660643461056a9190610fe6565b6105749190611017565b9081150290604051600060405180830381858888f1935050505015801561059f573d6000803e3d6000fd5b507ff30d2e9410d87d308f9d84aa985d19d81f406a2ac0fe54087ea3afcf8befab963384863486866040516105d996959493929190610d67565b60405180910390a150505050565b600680546105f4906111b3565b80601f0160208091040260200160405190810160405280929190818152602001828054610620906111b3565b801561066d5780601f106106425761010080835404028352916020019161066d565b820191906000526020600020905b81548152906001019060200180831161065057829003601f168201915b505050505081565b600360009054906101000a9004600f0b81565b600960009054906101000a900460010b81565b8473ffffffffffffffffffffffffffffffffffffffff166108fc349081150290604051600060405180830381858888f193505050501580156106e1573d6000803e3d6000fd5b507f2d7e56b520edbd217cfa1ba1e52027bd1e600aabc96ae648f8efd727f761f8f833868686868660405161071b96959493929190610dc8565b60405180910390a15050505050565b600560009054906101000a900473ffffffffffffffffffffffffffffffffffffffff1681565b6001805461075d906111b3565b80601f0160208091040260200160405190810160405280929190818152602001828054610789906111b3565b80156107d65780601f106107ab576101008083540402835291602001916107d6565b820191906000526020600020905b8154815290600101906020018083116107b957829003601f168201915b505050505081565b600780546107eb906111b3565b80601f0160208091040260200160405190810160405280929190818152602001828054610817906111b3565b80156108645780601f1061083957610100808354040283529160200191610864565b820191906000526020600020905b81548152906001019060200180831161084757829003601f168201915b505050505081565b60025481565b60008054906101000a9004600f0b81565b60088054610890906111b3565b80601f01602080910402602001604051908101604052809291908181526020018280546108bc906111b3565b80156109095780601f106108de57610100808354040283529160200191610909565b820191906000526020600020905b8154815290600101906020018083116108ec57829003601f168201915b505050505081565b82805461091d906111b3565b90600052602060002090601f01602090048101928261093f5760008555610986565b82601f1061095857805160ff1916838001178555610986565b82800160010185558215610986579182015b8281111561098557825182559160200191906001019061096a565b5b5090506109939190610997565b5090565b5b808211156109b0576000816000905550600101610998565b5090565b60006109c76109c284610f9a565b610f69565b9050828152602081018484840111156109df57600080fd5b6109ea848285611171565b509392505050565b600081359050610a01816112eb565b92915050565b600081359050610a1681611302565b92915050565b600081359050610a2b81611319565b92915050565b600082601f830112610a4257600080fd5b8135610a528482602086016109b4565b91505092915050565b600081359050610a6a81611330565b92915050565b600081359050610a7f81611347565b92915050565b60008060008060808587031215610a9b57600080fd5b6000610aa9878288016109f2565b9450506020610aba878288016109f2565b9350506040610acb87828801610a07565b9250506060610adc87828801610a5b565b91505092959194509250565b600080600080600060a08688031215610b0057600080fd5b6000610b0e888289016109f2565b955050602086013567ffffffffffffffff811115610b2b57600080fd5b610b3788828901610a31565b9450506040610b4888828901610a70565b9350506060610b5988828901610a07565b925050608086013567ffffffffffffffff811115610b7657600080fd5b610b8288828901610a31565b9150509295509295909350565b600080600080600080600080610100898b031215610bac57600080fd5b600089013567ffffffffffffffff811115610bc657600080fd5b610bd28b828c01610a31565b9850506020610be38b828c01610a70565b9750506040610bf48b828c01610a07565b965050606089013567ffffffffffffffff811115610c1157600080fd5b610c1d8b828c01610a31565b9550506080610c2e8b828c01610a1c565b94505060a089013567ffffffffffffffff811115610c4b57600080fd5b610c578b828c01610a31565b93505060c089013567ffffffffffffffff811115610c7457600080fd5b610c808b828c01610a31565b92505060e089013567ffffffffffffffff811115610c9d57600080fd5b610ca98b828c01610a31565b9150509295985092959890939650565b610cc281611129565b82525050565b610cd1816110a5565b82525050565b610ce0816110c9565b82525050565b610cef816110d6565b82525050565b6000610d0082610fca565b610d0a8185610fd5565b9350610d1a818560208601611180565b610d23816112da565b840191505092915050565b610d378161113b565b82525050565b610d468161111f565b82525050565b6000602082019050610d616000830184610cc8565b92915050565b600060c082019050610d7c6000830189610cc8565b610d896020830188610cb9565b610d966040830187610cb9565b610da36060830186610d3d565b610db06080830185610cd7565b610dbd60a0830184610d2e565b979650505050505050565b600060c082019050610ddd6000830189610cc8565b610dea6020830188610cb9565b8181036040830152610dfc8187610cf5565b9050610e0b6060830186610d3d565b610e186080830185610cd7565b81810360a0830152610e2a8184610cf5565b9050979650505050505050565b6000602082019050610e4c6000830184610cd7565b92915050565b600061014082019050610e68600083018d610cd7565b8181036020830152610e7a818c610cf5565b9050610e89604083018b610cc8565b610e96606083018a610d3d565b610ea36080830189610cd7565b81810360a0830152610eb58188610cf5565b9050610ec460c0830187610ce6565b81810360e0830152610ed68186610cf5565b9050818103610100830152610eeb8185610cf5565b9050818103610120830152610f008184610cf5565b90509b9a5050505050505050505050565b6000602082019050610f266000830184610ce6565b92915050565b60006020820190508181036000830152610f468184610cf5565b905092915050565b6000602082019050610f636000830184610d3d565b92915050565b6000604051905081810181811067ffffffffffffffff82111715610f9057610f8f6112ab565b5b8060405250919050565b600067ffffffffffffffff821115610fb557610fb46112ab565b5b601f19601f8301169050602081019050919050565b600081519050919050565b600082825260208201905092915050565b6000610ff18261111f565b9150610ffc8361111f565b92508261100c5761100b61124d565b5b828204905092915050565b60006110228261111f565b915061102d8361111f565b9250817fffffffffffffffffffffffffffffffffffffffffffffffffffffffffffffffff04831182151516156110665761106561121e565b5b828202905092915050565b600061107c826110e3565b9150611087836110e3565b92508282101561109a5761109961121e565b5b828203905092915050565b60006110b0826110ff565b9050919050565b60006110c2826110ff565b9050919050565b600081600f0b9050919050565b60008160010b9050919050565b60006fffffffffffffffffffffffffffffffff82169050919050565b600073ffffffffffffffffffffffffffffffffffffffff82169050919050565b6000819050919050565b60006111348261114d565b9050919050565b6000611146826110e3565b9050919050565b60006111588261115f565b9050919050565b600061116a826110ff565b9050919050565b82818337600083830152505050565b60005b8381101561119e578082015181840152602081019050611183565b838111156111ad576000848401525b50505050565b600060028204905060018216806111cb57607f821691505b602082108114156111df576111de61127c565b5b50919050565b60006111f0826110c9565b91506f7fffffffffffffffffffffffffffffff8214156112135761121261121e565b5b600182019050919050565b7f4e487b7100000000000000000000000000000000000000000000000000000000600052601160045260246000fd5b7f4e487b7100000000000000000000000000000000000000000000000000000000600052601260045260246000fd5b7f4e487b7100000000000000000000000000000000000000000000000000000000600052602260045260246000fd5b7f4e487b7100000000000000000000000000000000000000000000000000000000600052604160045260246000fd5b6000601f19601f8301169050919050565b6112f4816110b7565b81146112ff57600080fd5b50565b61130b816110c9565b811461131657600080fd5b50565b611322816110d6565b811461132d57600080fd5b50565b611339816110e3565b811461134457600080fd5b50565b6113508161111f565b811461135b57600080fd5b5056fea264697066735822122070143941f8d345558349a354288674a1242602d23608190f2ba93bf46cc6510164736f6c63430008000033",
  "immutableReferences": {},
  "source": "// SPDX-License-Identifier: MIT\r\npragma solidity ^0.8.0;\r\n\r\n\r\ncontract NFTProduct {\r\n    int128 public ID;  \r\n    string public Name ;\r\n    uint256 public Price; \r\n    int128 public Num ; \r\n    address public CreateHash;\r\n    address public UserHash ; \r\n    string public Topic ; \r\n    string public Description ;\r\n    string public Ipfshash ;                \r\n    int16 public Royalties ; \r\n    \r\n\r\n    constructor(){\r\n        CreateHash = msg.sender ;\r\n    }\r\n\r\n    \r\n    // NFT\r\n    function DeployedNFT(string memory _name , uint256 _price , int128 _num , \r\n    string memory _topic , int16 _roy , string memory _des,string memory _ipfs ,string memory _hash )  public   \r\n    {\r\n        ID ++ ; \r\n        Name = _name; \r\n        CreateHash = msg.sender ; \r\n        Price = _price ; \r\n        Num = _num ;         \r\n        Topic = _topic ;\r\n        Royalties = _roy ;      \r\n        Ipfshash = _ipfs ; \r\n        Description = _des ; \r\n        emit Success(ID,_name , msg.sender, _price ,_num, _topic , _roy ,_ipfs , _des ,_hash );\r\n    }\r\n    \r\n    // NFT\r\n    function BuyNFT(address payable _creator, string memory _ipfs ,\r\n         uint256 _price, int128 _id , string memory _hash ) payable  public {    \r\n        payable(_creator).transfer(msg.value); // \r\n        emit BuySuccess(msg.sender,_creator , _ipfs , _price , _id , _hash );\r\n    }\r\n\r\n    // NFT\r\n    function ResellNFT(address payable from, address payable _creator , \r\n    int128 _nftid , uint128 _roy) payable public {   \r\n        payable(from).transfer(msg.value / 100 * (100 - _roy )); // \r\n        payable(_creator).transfer(msg.value / 100 * _roy ) ; // \r\n        emit ResellSuccess(msg.sender,_creator ,from , msg.value ,_nftid , _roy );\r\n    }\r\n    // NFT \r\n    event ResellSuccess(\r\n        address user ,\r\n        address creator,\r\n        address from ,        \r\n        uint256 _price,\r\n        int128 _id ,\r\n        uint _roy\r\n    );\r\n    \r\n    // \r\n    event BuySuccess(\r\n        address user,\r\n        address creater,\r\n        string _ipfs ,\r\n        uint _price,\r\n        int128 _id,\r\n        string _hash \r\n    );\r\n    // \r\n    event Success(\r\n       int128 ID, \r\n       string Name,\r\n       address CreateHash ,\r\n       uint256 Price, \r\n       int128 Num ,       \r\n       string Topic,\r\n       int16 Royalties, \r\n       string IpfsHash,\r\n       string Description,\r\n       string Hash \r\n    );\r\n\r\n}",
  "sourcePath": "E:\\Project\\NFTMarketPlace\\frontend\\src\\SmartContract\\contracts\\NFTProduct.sol",
  "compiler": {
    "name": "solc",
    "version": "0.8.0+commit.c7dfd78e.Emscripten.clang"
  },
  "schemaVersion": "3.4.4",
  "updatedAt": "2022-04-28T10:46:03.103Z",
  "networkType": "ethereum",
  "devdoc": {
    "kind": "dev",
    "methods": {},
    "version": 1
  },
  "userdoc": {
    "kind": "user",
    "methods": {},
    "version": 1
  }
}