{
  "contractName": "NFTProduct",
  "abi": [
    {
      "inputs": [],
      "stateMutability": "nonpayable",
      "type": "constructor"
    },
    {
      "anonymous": false,
      "inputs": [
        {
          "indexed": false,
          "internalType": "address",
          "name": "user",
          "type": "address"
        },
        {
          "indexed": false,
          "internalType": "address",
          "name": "creater",
          "type": "address"
        },
        {
          "indexed": false,
          "internalType": "string",
          "name": "_ipfs",
          "type": "string"
        },
        {
          "indexed": false,
          "internalType": "uint256",
          "name": "_price",
          "type": "uint256"
        },
        {
          "indexed": false,
          "internalType": "int128",
          "name": "_id",
          "type": "int128"
        }
      ],
      "name": "BuySuccess",
      "type": "event"
    },
    {
      "anonymous": false,
      "inputs": [
        {
          "indexed": false,
          "internalType": "address",
          "name": "user",
          "type": "address"
        },
        {
          "indexed": false,
          "internalType": "address",
          "name": "creator",
          "type": "address"
        },
        {
          "indexed": false,
          "internalType": "address",
          "name": "from",
          "type": "address"
        },
        {
          "indexed": false,
          "internalType": "uint256",
          "name": "_price",
          "type": "uint256"
        },
        {
          "indexed": false,
          "internalType": "int128",
          "name": "_id",
          "type": "int128"
        },
        {
          "indexed": false,
          "internalType": "uint256",
          "name": "_roy",
          "type": "uint256"
        }
      ],
      "name": "ResellSuccess",
      "type": "event"
    },
    {
      "anonymous": false,
      "inputs": [
        {
          "indexed": false,
          "internalType": "int128",
          "name": "ID",
          "type": "int128"
        },
        {
          "indexed": false,
          "internalType": "address",
          "name": "CreateHash",
          "type": "address"
        },
        {
          "indexed": false,
          "internalType": "uint256",
          "name": "Price",
          "type": "uint256"
        },
        {
          "indexed": false,
          "internalType": "int128",
          "name": "Num",
          "type": "int128"
        },
        {
          "indexed": false,
          "internalType": "string",
          "name": "Title",
          "type": "string"
        },
        {
          "indexed": false,
          "internalType": "string",
          "name": "ArtWorkType",
          "type": "string"
        },
        {
          "indexed": false,
          "internalType": "int16",
          "name": "Royalties",
          "type": "int16"
        },
        {
          "indexed": false,
          "internalType": "string",
          "name": "IpfsHash",
          "type": "string"
        },
        {
          "indexed": false,
          "internalType": "string",
          "name": "Description",
          "type": "string"
        },
        {
          "indexed": false,
          "internalType": "string",
          "name": "Link",
          "type": "string"
        }
      ],
      "name": "Success",
      "type": "event"
    },
    {
      "inputs": [],
      "name": "ArtWorkType",
      "outputs": [
        {
          "internalType": "string",
          "name": "",
          "type": "string"
        }
      ],
      "stateMutability": "view",
      "type": "function",
      "constant": true
    },
    {
      "inputs": [],
      "name": "CreateHash",
      "outputs": [
        {
          "internalType": "address",
          "name": "",
          "type": "address"
        }
      ],
      "stateMutability": "view",
      "type": "function",
      "constant": true
    },
    {
      "inputs": [],
      "name": "Description",
      "outputs": [
        {
          "internalType": "string",
          "name": "",
          "type": "string"
        }
      ],
      "stateMutability": "view",
      "type": "function",
      "constant": true
    },
    {
      "inputs": [],
      "name": "ID",
      "outputs": [
        {
          "internalType": "int128",
          "name": "",
          "type": "int128"
        }
      ],
      "stateMutability": "view",
      "type": "function",
      "constant": true
    },
    {
      "inputs": [],
      "name": "Ipfshash",
      "outputs": [
        {
          "internalType": "string",
          "name": "",
          "type": "string"
        }
      ],
      "stateMutability": "view",
      "type": "function",
      "constant": true
    },
    {
      "inputs": [],
      "name": "Link",
      "outputs": [
        {
          "internalType": "string",
          "name": "",
          "type": "string"
        }
      ],
      "stateMutability": "view",
      "type": "function",
      "constant": true
    },
    {
      "inputs": [],
      "name": "Num",
      "outputs": [
        {
          "internalType": "int128",
          "name": "",
          "type": "int128"
        }
      ],
      "stateMutability": "view",
      "type": "function",
      "constant": true
    },
    {
      "inputs": [],
      "name": "Price",
      "outputs": [
        {
          "internalType": "uint256",
          "name": "",
          "type": "uint256"
        }
      ],
      "stateMutability": "view",
      "type": "function",
      "constant": true
    },
    {
      "inputs": [],
      "name": "Royalties",
      "outputs": [
        {
          "internalType": "int16",
          "name": "",
          "type": "int16"
        }
      ],
      "stateMutability": "view",
      "type": "function",
      "constant": true
    },
    {
      "inputs": [],
      "name": "Title",
      "outputs": [
        {
          "internalType": "string",
          "name": "",
          "type": "string"
        }
      ],
      "stateMutability": "view",
      "type": "function",
      "constant": true
    },
    {
      "inputs": [],
      "name": "UserHash",
      "outputs": [
        {
          "internalType": "address",
          "name": "",
          "type": "address"
        }
      ],
      "stateMutability": "view",
      "type": "function",
      "constant": true
    },
    {
      "inputs": [
        {
          "internalType": "string",
          "name": "_title",
          "type": "string"
        },
        {
          "internalType": "uint256",
          "name": "_price",
          "type": "uint256"
        },
        {
          "internalType": "int128",
          "name": "_num",
          "type": "int128"
        },
        {
          "internalType": "string",
          "name": "_type",
          "type": "string"
        },
        {
          "internalType": "int16",
          "name": "_roy",
          "type": "int16"
        },
        {
          "internalType": "string",
          "name": "_ipfs",
          "type": "string"
        },
        {
          "internalType": "string",
          "name": "_des",
          "type": "string"
        },
        {
          "internalType": "string",
          "name": "_lik",
          "type": "string"
        }
      ],
      "name": "DeployedNFT",
      "outputs": [],
      "stateMutability": "nonpayable",
      "type": "function"
    },
    {
      "inputs": [
        {
          "internalType": "address payable",
          "name": "_creator",
          "type": "address"
        },
        {
          "internalType": "string",
          "name": "_ipfs",
          "type": "string"
        },
        {
          "internalType": "uint256",
          "name": "_price",
          "type": "uint256"
        },
        {
          "internalType": "int128",
          "name": "_id",
          "type": "int128"
        }
      ],
      "name": "BuyNFT",
      "outputs": [],
      "stateMutability": "payable",
      "type": "function",
      "payable": true
    },
    {
      "inputs": [
        {
          "internalType": "address payable",
          "name": "from",
          "type": "address"
        },
        {
          "internalType": "address payable",
          "name": "_creator",
          "type": "address"
        },
        {
          "internalType": "int128",
          "name": "_nftid",
          "type": "int128"
        },
        {
          "internalType": "uint128",
          "name": "_roy",
          "type": "uint128"
        }
      ],
      "name": "ResellNFT",
      "outputs": [],
      "stateMutability": "payable",
      "type": "function",
      "payable": true
    }
  ],
  "bytecode": "0x608060405234801561001057600080fd5b5033600360006101000a81548173ffffffffffffffffffffffffffffffffffffffff021916908373ffffffffffffffffffffffffffffffffffffffff16021790555061143b806100616000396000f3fe6080604052600436106100dd5760003560e01c80635aabb8a61161007f578063b3cea21711610059578063b3cea21714610270578063b87f04041461029b578063bb0602cd146102c6578063f03c0db8146102f1576100dd565b80635aabb8a6146101ef5780638191745f1461021a5780639dfde20114610245576100dd565b80634237c65b116100bb5780634237c65b146101525780634a2c8b101461017d5780634d751d4b146101a85780634fa747dd146101c4576100dd565b8063119ca631146100e2578063124539dd1461010b57806318c25d4a14610136575b600080fd5b3480156100ee57600080fd5b5061010960048036038101906101049190610c4b565b61031c565b005b34801561011757600080fd5b506101206104eb565b60405161012d9190610e08565b60405180910390f35b610150600480360381019061014b9190610b6d565b610511565b005b34801561015e57600080fd5b50610167610644565b6040516101749190610ede565b60405180910390f35b34801561018957600080fd5b50610192610657565b60405161019f9190610fd3565b60405180910390f35b6101c260048036038101906101bd9190610bd0565b6106e5565b005b3480156101d057600080fd5b506101d9610771565b6040516101e69190610fb8565b60405180910390f35b3480156101fb57600080fd5b50610204610784565b6040516102119190610e08565b60405180910390f35b34801561022657600080fd5b5061022f6107aa565b60405161023c9190610fd3565b60405180910390f35b34801561025157600080fd5b5061025a610838565b6040516102679190610ff5565b60405180910390f35b34801561027c57600080fd5b5061028561083e565b6040516102929190610ede565b60405180910390f35b3480156102a757600080fd5b506102b061084f565b6040516102bd9190610fd3565b60405180910390f35b3480156102d257600080fd5b506102db6108dd565b6040516102e89190610fd3565b60405180910390f35b3480156102fd57600080fd5b5061030661096b565b6040516103139190610fd3565b60405180910390f35b60008081819054906101000a9004600f0b8092919061033a9061128c565b91906101000a8154816fffffffffffffffffffffffffffffffff0219169083600f0b6fffffffffffffffffffffffffffffffff1602179055505033600360006101000a81548173ffffffffffffffffffffffffffffffffffffffff021916908373ffffffffffffffffffffffffffffffffffffffff1602179055508660018190555085600260006101000a8154816fffffffffffffffffffffffffffffffff0219169083600f0b6fffffffffffffffffffffffffffffffff160217905550876009908051906020019061040e9291906109f9565b5084600590805190602001906104259291906109f9565b5083600a60006101000a81548161ffff021916908360010b61ffff160217905550826007908051906020019061045c9291906109f9565b5081600690805190602001906104739291906109f9565b50806008908051906020019061048a9291906109f9565b507f622b062634c3e8dd59a3118648584d15be37c9f56229adaafbcc6786141e0d5360008054906101000a9004600f0b3389898c8a8a8a8a8a6040516104d99a99989796959493929190610ef9565b60405180910390a15050505050505050565b600360009054906101000a900473ffffffffffffffffffffffffffffffffffffffff1681565b8373ffffffffffffffffffffffffffffffffffffffff166108fc8260646105389190611118565b6fffffffffffffffffffffffffffffffff16606434610557919061108d565b61056191906110be565b9081150290604051600060405180830381858888f1935050505015801561058c573d6000803e3d6000fd5b508273ffffffffffffffffffffffffffffffffffffffff166108fc826fffffffffffffffffffffffffffffffff166064346105c7919061108d565b6105d191906110be565b9081150290604051600060405180830381858888f193505050501580156105fc573d6000803e3d6000fd5b507ff30d2e9410d87d308f9d84aa985d19d81f406a2ac0fe54087ea3afcf8befab9633848634868660405161063696959493929190610e23565b60405180910390a150505050565b600260009054906101000a9004600f0b81565b600580546106649061125a565b80601f01602080910402602001604051908101604052809291908181526020018280546106909061125a565b80156106dd5780601f106106b2576101008083540402835291602001916106dd565b820191906000526020600020905b8154815290600101906020018083116106c057829003601f168201915b505050505081565b8373ffffffffffffffffffffffffffffffffffffffff166108fc349081150290604051600060405180830381858888f1935050505015801561072b573d6000803e3d6000fd5b507fec3f5ab481d8a78f5607c1dcd11597119ea9da61885865c2d8b74656f97fbe373385858585604051610763959493929190610e84565b60405180910390a150505050565b600a60009054906101000a900460010b81565b600460009054906101000a900473ffffffffffffffffffffffffffffffffffffffff1681565b600680546107b79061125a565b80601f01602080910402602001604051908101604052809291908181526020018280546107e39061125a565b80156108305780601f1061080557610100808354040283529160200191610830565b820191906000526020600020905b81548152906001019060200180831161081357829003601f168201915b505050505081565b60015481565b60008054906101000a9004600f0b81565b6009805461085c9061125a565b80601f01602080910402602001604051908101604052809291908181526020018280546108889061125a565b80156108d55780601f106108aa576101008083540402835291602001916108d5565b820191906000526020600020905b8154815290600101906020018083116108b857829003601f168201915b505050505081565b600880546108ea9061125a565b80601f01602080910402602001604051908101604052809291908181526020018280546109169061125a565b80156109635780601f1061093857610100808354040283529160200191610963565b820191906000526020600020905b81548152906001019060200180831161094657829003601f168201915b505050505081565b600780546109789061125a565b80601f01602080910402602001604051908101604052809291908181526020018280546109a49061125a565b80156109f15780601f106109c6576101008083540402835291602001916109f1565b820191906000526020600020905b8154815290600101906020018083116109d457829003601f168201915b505050505081565b828054610a059061125a565b90600052602060002090601f016020900481019282610a275760008555610a6e565b82601f10610a4057805160ff1916838001178555610a6e565b82800160010185558215610a6e579182015b82811115610a6d578251825591602001919060010190610a52565b5b509050610a7b9190610a7f565b5090565b5b80821115610a98576000816000905550600101610a80565b5090565b6000610aaf610aaa84611041565b611010565b905082815260208101848484011115610ac757600080fd5b610ad2848285611218565b509392505050565b600081359050610ae981611392565b92915050565b600081359050610afe816113a9565b92915050565b600081359050610b13816113c0565b92915050565b600082601f830112610b2a57600080fd5b8135610b3a848260208601610a9c565b91505092915050565b600081359050610b52816113d7565b92915050565b600081359050610b67816113ee565b92915050565b60008060008060808587031215610b8357600080fd5b6000610b9187828801610ada565b9450506020610ba287828801610ada565b9350506040610bb387828801610aef565b9250506060610bc487828801610b43565b91505092959194509250565b60008060008060808587031215610be657600080fd5b6000610bf487828801610ada565b945050602085013567ffffffffffffffff811115610c1157600080fd5b610c1d87828801610b19565b9350506040610c2e87828801610b58565b9250506060610c3f87828801610aef565b91505092959194509250565b600080600080600080600080610100898b031215610c6857600080fd5b600089013567ffffffffffffffff811115610c8257600080fd5b610c8e8b828c01610b19565b9850506020610c9f8b828c01610b58565b9750506040610cb08b828c01610aef565b965050606089013567ffffffffffffffff811115610ccd57600080fd5b610cd98b828c01610b19565b9550506080610cea8b828c01610b04565b94505060a089013567ffffffffffffffff811115610d0757600080fd5b610d138b828c01610b19565b93505060c089013567ffffffffffffffff811115610d3057600080fd5b610d3c8b828c01610b19565b92505060e089013567ffffffffffffffff811115610d5957600080fd5b610d658b828c01610b19565b9150509295985092959890939650565b610d7e816111d0565b82525050565b610d8d8161114c565b82525050565b610d9c81611170565b82525050565b610dab8161117d565b82525050565b6000610dbc82611071565b610dc6818561107c565b9350610dd6818560208601611227565b610ddf81611381565b840191505092915050565b610df3816111e2565b82525050565b610e02816111c6565b82525050565b6000602082019050610e1d6000830184610d84565b92915050565b600060c082019050610e386000830189610d84565b610e456020830188610d75565b610e526040830187610d75565b610e5f6060830186610df9565b610e6c6080830185610d93565b610e7960a0830184610dea565b979650505050505050565b600060a082019050610e996000830188610d84565b610ea66020830187610d75565b8181036040830152610eb88186610db1565b9050610ec76060830185610df9565b610ed46080830184610d93565b9695505050505050565b6000602082019050610ef36000830184610d93565b92915050565b600061014082019050610f0f600083018d610d93565b610f1c602083018c610d84565b610f29604083018b610df9565b610f36606083018a610d93565b8181036080830152610f488189610db1565b905081810360a0830152610f5c8188610db1565b9050610f6b60c0830187610da2565b81810360e0830152610f7d8186610db1565b9050818103610100830152610f928185610db1565b9050818103610120830152610fa78184610db1565b90509b9a5050505050505050505050565b6000602082019050610fcd6000830184610da2565b92915050565b60006020820190508181036000830152610fed8184610db1565b905092915050565b600060208201905061100a6000830184610df9565b92915050565b6000604051905081810181811067ffffffffffffffff8211171561103757611036611352565b5b8060405250919050565b600067ffffffffffffffff82111561105c5761105b611352565b5b601f19601f8301169050602081019050919050565b600081519050919050565b600082825260208201905092915050565b6000611098826111c6565b91506110a3836111c6565b9250826110b3576110b26112f4565b5b828204905092915050565b60006110c9826111c6565b91506110d4836111c6565b9250817fffffffffffffffffffffffffffffffffffffffffffffffffffffffffffffffff048311821515161561110d5761110c6112c5565b5b828202905092915050565b60006111238261118a565b915061112e8361118a565b925082821015611141576111406112c5565b5b828203905092915050565b6000611157826111a6565b9050919050565b6000611169826111a6565b9050919050565b600081600f0b9050919050565b60008160010b9050919050565b60006fffffffffffffffffffffffffffffffff82169050919050565b600073ffffffffffffffffffffffffffffffffffffffff82169050919050565b6000819050919050565b60006111db826111f4565b9050919050565b60006111ed8261118a565b9050919050565b60006111ff82611206565b9050919050565b6000611211826111a6565b9050919050565b82818337600083830152505050565b60005b8381101561124557808201518184015260208101905061122a565b83811115611254576000848401525b50505050565b6000600282049050600182168061127257607f821691505b6020821081141561128657611285611323565b5b50919050565b600061129782611170565b91506f7fffffffffffffffffffffffffffffff8214156112ba576112b96112c5565b5b600182019050919050565b7f4e487b7100000000000000000000000000000000000000000000000000000000600052601160045260246000fd5b7f4e487b7100000000000000000000000000000000000000000000000000000000600052601260045260246000fd5b7f4e487b7100000000000000000000000000000000000000000000000000000000600052602260045260246000fd5b7f4e487b7100000000000000000000000000000000000000000000000000000000600052604160045260246000fd5b6000601f19601f8301169050919050565b61139b8161115e565b81146113a657600080fd5b50565b6113b281611170565b81146113bd57600080fd5b50565b6113c98161117d565b81146113d457600080fd5b50565b6113e08161118a565b81146113eb57600080fd5b50565b6113f7816111c6565b811461140257600080fd5b5056fea2646970667358221220bd48c32622b03b06c67a10679394f19905bc09c074a3737c4355a0c29e87d34d64736f6c63430008000033",
  "immutableReferences": {},
  "source": "// SPDX-License-Identifier: MIT\r\npragma solidity ^0.8.0;\r\n\r\n\r\ncontract NFTProduct {\r\n    int128 public ID;  \r\n    uint256 public Price; \r\n    int128 public Num ; \r\n    address public CreateHash;\r\n    address public UserHash ; \r\n    string public ArtWorkType ; \r\n    string public Description ;\r\n    string public Ipfshash ;\r\n    string public Link ;\r\n    string public Title ;   \r\n    int16 public Royalties ; \r\n    \r\n\r\n    constructor(){\r\n        CreateHash = msg.sender ;\r\n    }\r\n\r\n    \r\n    // NFT\r\n    function DeployedNFT(string memory _title , uint256 _price , int128 _num , string memory _type , int16 _roy ,string memory _ipfs , string memory _des  , string memory _lik )  public   \r\n    {\r\n        ID ++ ; \r\n        CreateHash = msg.sender ; \r\n        Price = _price ; \r\n        Num = _num ; \r\n        Title = _title; \r\n        ArtWorkType = _type ;\r\n        Royalties = _roy ;      \r\n        Ipfshash = _ipfs ; \r\n        Description = _des ; \r\n        Link = _lik ; \r\n        emit Success(ID, msg.sender, _price ,_num, _title , _type , _roy ,_ipfs , _des , _lik );\r\n    }\r\n    \r\n    // NFT\r\n    function BuyNFT(address payable _creator, string memory _ipfs , uint256 _price, int128 _id  ) payable  public {    \r\n        payable(_creator).transfer(msg.value); // \r\n        emit BuySuccess(msg.sender,_creator , _ipfs , _price , _id );\r\n    }\r\n\r\n    // NFT\r\n    function ResellNFT(address payable from, address payable _creator , int128 _nftid , uint128 _roy) payable public {   \r\n        payable(from).transfer(msg.value / 100 * (100 - _roy )); // \r\n        payable(_creator).transfer(msg.value / 100 * _roy ) ; // \r\n        emit ResellSuccess(msg.sender,_creator ,from , msg.value ,_nftid , _roy );\r\n    }\r\n    // NFT \r\n    event ResellSuccess(\r\n        address user ,\r\n        address creator,\r\n        address from ,        \r\n        uint256 _price,\r\n        int128 _id ,\r\n        uint _roy\r\n    );\r\n    \r\n    // \r\n    event BuySuccess(\r\n        address user,\r\n        address creater,\r\n        string _ipfs ,\r\n        uint _price,\r\n        int128 _id \r\n    );\r\n    // \r\n    event Success(\r\n       int128 ID, \r\n       address CreateHash ,\r\n       uint256 Price, \r\n       int128 Num , \r\n       string Title,\r\n       string ArtWorkType,\r\n       int16 Royalties, \r\n       string IpfsHash,\r\n       string Description,\r\n       string Link\r\n    );\r\n\r\n}",
  "sourcePath": "E:\\Project\\NFTMarketPlace\\frontend\\src\\SmartContract\\contracts\\NFTProduct.sol",
  "compiler": {
    "name": "solc",
    "version": "0.8.0+commit.c7dfd78e.Emscripten.clang"
  },
  "schemaVersion": "3.4.4",
  "updatedAt": "2022-04-11T12:23:41.231Z",
  "networkType": "ethereum",
  "devdoc": {
    "kind": "dev",
    "methods": {},
    "version": 1
  },
  "userdoc": {
    "kind": "user",
    "methods": {},
    "version": 1
  }
}