{
  "contractName": "NFTProduct",
  "abi": [
    {
      "inputs": [],
      "stateMutability": "nonpayable",
      "type": "constructor"
    },
    {
      "anonymous": false,
      "inputs": [
        {
          "indexed": false,
          "internalType": "address",
          "name": "user",
          "type": "address"
        },
        {
          "indexed": false,
          "internalType": "address",
          "name": "creater",
          "type": "address"
        },
        {
          "indexed": false,
          "internalType": "string",
          "name": "_ipfs",
          "type": "string"
        },
        {
          "indexed": false,
          "internalType": "uint256",
          "name": "_price",
          "type": "uint256"
        },
        {
          "indexed": false,
          "internalType": "int128",
          "name": "_id",
          "type": "int128"
        }
      ],
      "name": "BuySuccess",
      "type": "event"
    },
    {
      "anonymous": false,
      "inputs": [
        {
          "indexed": false,
          "internalType": "int128",
          "name": "ID",
          "type": "int128"
        },
        {
          "indexed": false,
          "internalType": "address",
          "name": "CreateHash",
          "type": "address"
        },
        {
          "indexed": false,
          "internalType": "uint256",
          "name": "Price",
          "type": "uint256"
        },
        {
          "indexed": false,
          "internalType": "int128",
          "name": "Num",
          "type": "int128"
        },
        {
          "indexed": false,
          "internalType": "string",
          "name": "Title",
          "type": "string"
        },
        {
          "indexed": false,
          "internalType": "string",
          "name": "ArtWorkType",
          "type": "string"
        },
        {
          "indexed": false,
          "internalType": "int16",
          "name": "Royalties",
          "type": "int16"
        },
        {
          "indexed": false,
          "internalType": "string",
          "name": "IpfsHash",
          "type": "string"
        },
        {
          "indexed": false,
          "internalType": "string",
          "name": "Description",
          "type": "string"
        },
        {
          "indexed": false,
          "internalType": "string",
          "name": "Link",
          "type": "string"
        }
      ],
      "name": "Success",
      "type": "event"
    },
    {
      "inputs": [],
      "name": "ArtWorkType",
      "outputs": [
        {
          "internalType": "string",
          "name": "",
          "type": "string"
        }
      ],
      "stateMutability": "view",
      "type": "function",
      "constant": true
    },
    {
      "inputs": [],
      "name": "CreateHash",
      "outputs": [
        {
          "internalType": "address",
          "name": "",
          "type": "address"
        }
      ],
      "stateMutability": "view",
      "type": "function",
      "constant": true
    },
    {
      "inputs": [],
      "name": "Description",
      "outputs": [
        {
          "internalType": "string",
          "name": "",
          "type": "string"
        }
      ],
      "stateMutability": "view",
      "type": "function",
      "constant": true
    },
    {
      "inputs": [],
      "name": "ID",
      "outputs": [
        {
          "internalType": "int128",
          "name": "",
          "type": "int128"
        }
      ],
      "stateMutability": "view",
      "type": "function",
      "constant": true
    },
    {
      "inputs": [],
      "name": "Ipfshash",
      "outputs": [
        {
          "internalType": "string",
          "name": "",
          "type": "string"
        }
      ],
      "stateMutability": "view",
      "type": "function",
      "constant": true
    },
    {
      "inputs": [],
      "name": "Link",
      "outputs": [
        {
          "internalType": "string",
          "name": "",
          "type": "string"
        }
      ],
      "stateMutability": "view",
      "type": "function",
      "constant": true
    },
    {
      "inputs": [],
      "name": "Num",
      "outputs": [
        {
          "internalType": "int128",
          "name": "",
          "type": "int128"
        }
      ],
      "stateMutability": "view",
      "type": "function",
      "constant": true
    },
    {
      "inputs": [],
      "name": "Price",
      "outputs": [
        {
          "internalType": "uint256",
          "name": "",
          "type": "uint256"
        }
      ],
      "stateMutability": "view",
      "type": "function",
      "constant": true
    },
    {
      "inputs": [],
      "name": "Royalties",
      "outputs": [
        {
          "internalType": "int16",
          "name": "",
          "type": "int16"
        }
      ],
      "stateMutability": "view",
      "type": "function",
      "constant": true
    },
    {
      "inputs": [],
      "name": "Title",
      "outputs": [
        {
          "internalType": "string",
          "name": "",
          "type": "string"
        }
      ],
      "stateMutability": "view",
      "type": "function",
      "constant": true
    },
    {
      "inputs": [],
      "name": "UserHash",
      "outputs": [
        {
          "internalType": "address",
          "name": "",
          "type": "address"
        }
      ],
      "stateMutability": "view",
      "type": "function",
      "constant": true
    },
    {
      "inputs": [
        {
          "internalType": "string",
          "name": "_title",
          "type": "string"
        },
        {
          "internalType": "uint256",
          "name": "_price",
          "type": "uint256"
        },
        {
          "internalType": "int128",
          "name": "_num",
          "type": "int128"
        },
        {
          "internalType": "string",
          "name": "_type",
          "type": "string"
        },
        {
          "internalType": "int16",
          "name": "_roy",
          "type": "int16"
        },
        {
          "internalType": "string",
          "name": "_ipfs",
          "type": "string"
        },
        {
          "internalType": "string",
          "name": "_des",
          "type": "string"
        },
        {
          "internalType": "string",
          "name": "_lik",
          "type": "string"
        }
      ],
      "name": "DeployedNFT",
      "outputs": [],
      "stateMutability": "nonpayable",
      "type": "function"
    },
    {
      "inputs": [
        {
          "internalType": "address payable",
          "name": "_creator",
          "type": "address"
        },
        {
          "internalType": "string",
          "name": "_ipfs",
          "type": "string"
        },
        {
          "internalType": "uint256",
          "name": "_price",
          "type": "uint256"
        },
        {
          "internalType": "int128",
          "name": "_id",
          "type": "int128"
        }
      ],
      "name": "BuyNFT",
      "outputs": [],
      "stateMutability": "payable",
      "type": "function",
      "payable": true
    }
  ],
  "bytecode": "0x608060405234801561001057600080fd5b5033600360006101000a81548173ffffffffffffffffffffffffffffffffffffffff021916908373ffffffffffffffffffffffffffffffffffffffff1602179055506110b0806100616000396000f3fe6080604052600436106100c25760003560e01c80635aabb8a61161007f578063b3cea21711610059578063b3cea21714610239578063b87f040414610264578063bb0602cd1461028f578063f03c0db8146102ba576100c2565b80635aabb8a6146101b85780638191745f146101e35780639dfde2011461020e576100c2565b8063119ca631146100c7578063124539dd146100f05780634237c65b1461011b5780634a2c8b10146101465780634d751d4b146101715780634fa747dd1461018d575b600080fd5b3480156100d357600080fd5b506100ee60048036038101906100e99190610a63565b6102e5565b005b3480156100fc57600080fd5b506101056104b4565b6040516101129190610c11565b60405180910390f35b34801561012757600080fd5b506101306104da565b60405161013d9190610c86565b60405180910390f35b34801561015257600080fd5b5061015b6104ed565b6040516101689190610d7b565b60405180910390f35b61018b600480360381019061018691906109e8565b61057b565b005b34801561019957600080fd5b506101a2610601565b6040516101af9190610d60565b60405180910390f35b3480156101c457600080fd5b506101cd610614565b6040516101da9190610c11565b60405180910390f35b3480156101ef57600080fd5b506101f861063a565b6040516102059190610d7b565b60405180910390f35b34801561021a57600080fd5b506102236106c8565b6040516102309190610d9d565b60405180910390f35b34801561024557600080fd5b5061024e6106ce565b60405161025b9190610c86565b60405180910390f35b34801561027057600080fd5b506102796106df565b6040516102869190610d7b565b60405180910390f35b34801561029b57600080fd5b506102a461076d565b6040516102b19190610d7b565b60405180910390f35b3480156102c657600080fd5b506102cf6107fb565b6040516102dc9190610d7b565b60405180910390f35b60008081819054906101000a9004600f0b8092919061030390610f47565b91906101000a8154816fffffffffffffffffffffffffffffffff0219169083600f0b6fffffffffffffffffffffffffffffffff1602179055505033600360006101000a81548173ffffffffffffffffffffffffffffffffffffffff021916908373ffffffffffffffffffffffffffffffffffffffff1602179055508660018190555085600260006101000a8154816fffffffffffffffffffffffffffffffff0219169083600f0b6fffffffffffffffffffffffffffffffff16021790555087600990805190602001906103d7929190610889565b5084600590805190602001906103ee929190610889565b5083600a60006101000a81548161ffff021916908360010b61ffff1602179055508260079080519060200190610425929190610889565b50816006908051906020019061043c929190610889565b508060089080519060200190610453929190610889565b507f622b062634c3e8dd59a3118648584d15be37c9f56229adaafbcc6786141e0d5360008054906101000a9004600f0b3389898c8a8a8a8a8a6040516104a29a99989796959493929190610ca1565b60405180910390a15050505050505050565b600360009054906101000a900473ffffffffffffffffffffffffffffffffffffffff1681565b600260009054906101000a9004600f0b81565b600580546104fa90610f15565b80601f016020809104026020016040519081016040528092919081815260200182805461052690610f15565b80156105735780601f1061054857610100808354040283529160200191610573565b820191906000526020600020905b81548152906001019060200180831161055657829003601f168201915b505050505081565b33600460006101000a81548173ffffffffffffffffffffffffffffffffffffffff021916908373ffffffffffffffffffffffffffffffffffffffff1602179055507fec3f5ab481d8a78f5607c1dcd11597119ea9da61885865c2d8b74656f97fbe3733858585856040516105f3959493929190610c2c565b60405180910390a150505050565b600a60009054906101000a900460010b81565b600460009054906101000a900473ffffffffffffffffffffffffffffffffffffffff1681565b6006805461064790610f15565b80601f016020809104026020016040519081016040528092919081815260200182805461067390610f15565b80156106c05780601f10610695576101008083540402835291602001916106c0565b820191906000526020600020905b8154815290600101906020018083116106a357829003601f168201915b505050505081565b60015481565b60008054906101000a9004600f0b81565b600980546106ec90610f15565b80601f016020809104026020016040519081016040528092919081815260200182805461071890610f15565b80156107655780601f1061073a57610100808354040283529160200191610765565b820191906000526020600020905b81548152906001019060200180831161074857829003601f168201915b505050505081565b6008805461077a90610f15565b80601f01602080910402602001604051908101604052809291908181526020018280546107a690610f15565b80156107f35780601f106107c8576101008083540402835291602001916107f3565b820191906000526020600020905b8154815290600101906020018083116107d657829003601f168201915b505050505081565b6007805461080890610f15565b80601f016020809104026020016040519081016040528092919081815260200182805461083490610f15565b80156108815780601f1061085657610100808354040283529160200191610881565b820191906000526020600020905b81548152906001019060200180831161086457829003601f168201915b505050505081565b82805461089590610f15565b90600052602060002090601f0160209004810192826108b757600085556108fe565b82601f106108d057805160ff19168380011785556108fe565b828001600101855582156108fe579182015b828111156108fd5782518255916020019190600101906108e2565b5b50905061090b919061090f565b5090565b5b80821115610928576000816000905550600101610910565b5090565b600061093f61093a84610de9565b610db8565b90508281526020810184848401111561095757600080fd5b610962848285610ed3565b509392505050565b6000813590506109798161101e565b92915050565b60008135905061098e81611035565b92915050565b6000813590506109a38161104c565b92915050565b600082601f8301126109ba57600080fd5b81356109ca84826020860161092c565b91505092915050565b6000813590506109e281611063565b92915050565b600080600080608085870312156109fe57600080fd5b6000610a0c8782880161096a565b945050602085013567ffffffffffffffff811115610a2957600080fd5b610a35878288016109a9565b9350506040610a46878288016109d3565b9250506060610a578782880161097f565b91505092959194509250565b600080600080600080600080610100898b031215610a8057600080fd5b600089013567ffffffffffffffff811115610a9a57600080fd5b610aa68b828c016109a9565b9850506020610ab78b828c016109d3565b9750506040610ac88b828c0161097f565b965050606089013567ffffffffffffffff811115610ae557600080fd5b610af18b828c016109a9565b9550506080610b028b828c01610994565b94505060a089013567ffffffffffffffff811115610b1f57600080fd5b610b2b8b828c016109a9565b93505060c089013567ffffffffffffffff811115610b4857600080fd5b610b548b828c016109a9565b92505060e089013567ffffffffffffffff811115610b7157600080fd5b610b7d8b828c016109a9565b9150509295985092959890939650565b610b9681610e9d565b82525050565b610ba581610e35565b82525050565b610bb481610e59565b82525050565b610bc381610e66565b82525050565b6000610bd482610e19565b610bde8185610e24565b9350610bee818560208601610ee2565b610bf78161100d565b840191505092915050565b610c0b81610e93565b82525050565b6000602082019050610c266000830184610b9c565b92915050565b600060a082019050610c416000830188610b9c565b610c4e6020830187610b8d565b8181036040830152610c608186610bc9565b9050610c6f6060830185610c02565b610c7c6080830184610bab565b9695505050505050565b6000602082019050610c9b6000830184610bab565b92915050565b600061014082019050610cb7600083018d610bab565b610cc4602083018c610b9c565b610cd1604083018b610c02565b610cde606083018a610bab565b8181036080830152610cf08189610bc9565b905081810360a0830152610d048188610bc9565b9050610d1360c0830187610bba565b81810360e0830152610d258186610bc9565b9050818103610100830152610d3a8185610bc9565b9050818103610120830152610d4f8184610bc9565b90509b9a5050505050505050505050565b6000602082019050610d756000830184610bba565b92915050565b60006020820190508181036000830152610d958184610bc9565b905092915050565b6000602082019050610db26000830184610c02565b92915050565b6000604051905081810181811067ffffffffffffffff82111715610ddf57610dde610fde565b5b8060405250919050565b600067ffffffffffffffff821115610e0457610e03610fde565b5b601f19601f8301169050602081019050919050565b600081519050919050565b600082825260208201905092915050565b6000610e4082610e73565b9050919050565b6000610e5282610e73565b9050919050565b600081600f0b9050919050565b60008160010b9050919050565b600073ffffffffffffffffffffffffffffffffffffffff82169050919050565b6000819050919050565b6000610ea882610eaf565b9050919050565b6000610eba82610ec1565b9050919050565b6000610ecc82610e73565b9050919050565b82818337600083830152505050565b60005b83811015610f00578082015181840152602081019050610ee5565b83811115610f0f576000848401525b50505050565b60006002820490506001821680610f2d57607f821691505b60208210811415610f4157610f40610faf565b5b50919050565b6000610f5282610e59565b91506f7fffffffffffffffffffffffffffffff821415610f7557610f74610f80565b5b600182019050919050565b7f4e487b7100000000000000000000000000000000000000000000000000000000600052601160045260246000fd5b7f4e487b7100000000000000000000000000000000000000000000000000000000600052602260045260246000fd5b7f4e487b7100000000000000000000000000000000000000000000000000000000600052604160045260246000fd5b6000601f19601f8301169050919050565b61102781610e47565b811461103257600080fd5b50565b61103e81610e59565b811461104957600080fd5b50565b61105581610e66565b811461106057600080fd5b50565b61106c81610e93565b811461107757600080fd5b5056fea26469706673582212201ac519f5b14b05f9d80c5a9801dd620953d59481e34cb64cabfbf947aa4f267c64736f6c63430008000033",
  "immutableReferences": {},
  "source": "pragma solidity ^0.8.0;\r\n\r\n\r\ncontract NFTProduct {\r\n    int128 public ID;  \r\n    uint256 public Price; \r\n    int128 public Num ; \r\n    address public CreateHash;\r\n    address public UserHash ; \r\n    string public ArtWorkType ; \r\n    string public Description ;\r\n    string public Ipfshash ;\r\n    string public Link ;\r\n    string public Title ;   \r\n    int16 public Royalties ; \r\n    \r\n\r\n    constructor(){\r\n        CreateHash = msg.sender ;\r\n    }\r\n\r\n\r\n    function DeployedNFT(string memory _title , uint256 _price , int128 _num , string memory _type , int16 _roy ,string memory _ipfs , string memory _des  , string memory _lik )  public   \r\n    {\r\n        ID ++ ; \r\n        CreateHash = msg.sender ; \r\n        Price = _price ; \r\n        Num = _num ; \r\n        Title = _title; \r\n        ArtWorkType = _type ;\r\n        Royalties = _roy ;      \r\n        Ipfshash = _ipfs ; \r\n        Description = _des ; \r\n        Link = _lik ; \r\n        emit Success(ID, msg.sender, _price ,_num, _title , _type , _roy ,_ipfs , _des , _lik );\r\n    }\r\n\r\n    function BuyNFT(address payable _creator, string memory _ipfs , uint256 _price, int128 _id  ) payable  public {    \r\n        UserHash = msg.sender ;  \r\n        emit BuySuccess(msg.sender,_creator , _ipfs , _price , _id );\r\n    }\r\n\r\n    \r\n    event BuySuccess(\r\n        address user,\r\n        address creater,\r\n        string _ipfs ,\r\n        uint _price,\r\n        int128 _id \r\n    );\r\n    \r\n    event Success(\r\n       int128 ID, \r\n       address CreateHash ,\r\n       uint256 Price, \r\n       int128 Num , \r\n       string Title,\r\n       string ArtWorkType,\r\n       int16 Royalties, \r\n       string IpfsHash,\r\n       string Description,\r\n       string Link\r\n    );\r\n\r\n}",
  "sourcePath": "E:\\Project\\NFTMarketPlace\\frontend\\src\\SmartContract\\contracts\\NFTProduct.sol",
  "compiler": {
    "name": "solc",
    "version": "0.8.0+commit.c7dfd78e.Emscripten.clang"
  },
  "schemaVersion": "3.4.4",
  "updatedAt": "2022-03-04T08:06:01.815Z",
  "networkType": "ethereum",
  "devdoc": {
    "kind": "dev",
    "methods": {},
    "version": 1
  },
  "userdoc": {
    "kind": "user",
    "methods": {},
    "version": 1
  }
}