{
  "contractName": "NFTProduct",
  "abi": [
    {
      "inputs": [],
      "stateMutability": "nonpayable",
      "type": "constructor"
    },
    {
      "anonymous": false,
      "inputs": [
        {
          "indexed": false,
          "internalType": "address",
          "name": "user",
          "type": "address"
        },
        {
          "indexed": false,
          "internalType": "address",
          "name": "creater",
          "type": "address"
        },
        {
          "indexed": false,
          "internalType": "string",
          "name": "_ipfs",
          "type": "string"
        },
        {
          "indexed": false,
          "internalType": "uint256",
          "name": "_price",
          "type": "uint256"
        },
        {
          "indexed": false,
          "internalType": "int128",
          "name": "_id",
          "type": "int128"
        }
      ],
      "name": "BuySuccess",
      "type": "event"
    },
    {
      "anonymous": false,
      "inputs": [
        {
          "indexed": false,
          "internalType": "address",
          "name": "user",
          "type": "address"
        },
        {
          "indexed": false,
          "internalType": "address",
          "name": "creator",
          "type": "address"
        },
        {
          "indexed": false,
          "internalType": "address",
          "name": "from",
          "type": "address"
        },
        {
          "indexed": false,
          "internalType": "uint256",
          "name": "_price",
          "type": "uint256"
        },
        {
          "indexed": false,
          "internalType": "int128",
          "name": "_id",
          "type": "int128"
        }
      ],
      "name": "ResellSuccess",
      "type": "event"
    },
    {
      "anonymous": false,
      "inputs": [
        {
          "indexed": false,
          "internalType": "int128",
          "name": "ID",
          "type": "int128"
        },
        {
          "indexed": false,
          "internalType": "address",
          "name": "CreateHash",
          "type": "address"
        },
        {
          "indexed": false,
          "internalType": "uint256",
          "name": "Price",
          "type": "uint256"
        },
        {
          "indexed": false,
          "internalType": "int128",
          "name": "Num",
          "type": "int128"
        },
        {
          "indexed": false,
          "internalType": "string",
          "name": "Title",
          "type": "string"
        },
        {
          "indexed": false,
          "internalType": "string",
          "name": "ArtWorkType",
          "type": "string"
        },
        {
          "indexed": false,
          "internalType": "int16",
          "name": "Royalties",
          "type": "int16"
        },
        {
          "indexed": false,
          "internalType": "string",
          "name": "IpfsHash",
          "type": "string"
        },
        {
          "indexed": false,
          "internalType": "string",
          "name": "Description",
          "type": "string"
        },
        {
          "indexed": false,
          "internalType": "string",
          "name": "Link",
          "type": "string"
        }
      ],
      "name": "Success",
      "type": "event"
    },
    {
      "inputs": [],
      "name": "ArtWorkType",
      "outputs": [
        {
          "internalType": "string",
          "name": "",
          "type": "string"
        }
      ],
      "stateMutability": "view",
      "type": "function",
      "constant": true
    },
    {
      "inputs": [],
      "name": "CreateHash",
      "outputs": [
        {
          "internalType": "address",
          "name": "",
          "type": "address"
        }
      ],
      "stateMutability": "view",
      "type": "function",
      "constant": true
    },
    {
      "inputs": [],
      "name": "Description",
      "outputs": [
        {
          "internalType": "string",
          "name": "",
          "type": "string"
        }
      ],
      "stateMutability": "view",
      "type": "function",
      "constant": true
    },
    {
      "inputs": [],
      "name": "ID",
      "outputs": [
        {
          "internalType": "int128",
          "name": "",
          "type": "int128"
        }
      ],
      "stateMutability": "view",
      "type": "function",
      "constant": true
    },
    {
      "inputs": [],
      "name": "Ipfshash",
      "outputs": [
        {
          "internalType": "string",
          "name": "",
          "type": "string"
        }
      ],
      "stateMutability": "view",
      "type": "function",
      "constant": true
    },
    {
      "inputs": [],
      "name": "Link",
      "outputs": [
        {
          "internalType": "string",
          "name": "",
          "type": "string"
        }
      ],
      "stateMutability": "view",
      "type": "function",
      "constant": true
    },
    {
      "inputs": [],
      "name": "Num",
      "outputs": [
        {
          "internalType": "int128",
          "name": "",
          "type": "int128"
        }
      ],
      "stateMutability": "view",
      "type": "function",
      "constant": true
    },
    {
      "inputs": [],
      "name": "Price",
      "outputs": [
        {
          "internalType": "uint256",
          "name": "",
          "type": "uint256"
        }
      ],
      "stateMutability": "view",
      "type": "function",
      "constant": true
    },
    {
      "inputs": [],
      "name": "Royalties",
      "outputs": [
        {
          "internalType": "int16",
          "name": "",
          "type": "int16"
        }
      ],
      "stateMutability": "view",
      "type": "function",
      "constant": true
    },
    {
      "inputs": [],
      "name": "Title",
      "outputs": [
        {
          "internalType": "string",
          "name": "",
          "type": "string"
        }
      ],
      "stateMutability": "view",
      "type": "function",
      "constant": true
    },
    {
      "inputs": [],
      "name": "UserHash",
      "outputs": [
        {
          "internalType": "address",
          "name": "",
          "type": "address"
        }
      ],
      "stateMutability": "view",
      "type": "function",
      "constant": true
    },
    {
      "inputs": [
        {
          "internalType": "string",
          "name": "_title",
          "type": "string"
        },
        {
          "internalType": "uint256",
          "name": "_price",
          "type": "uint256"
        },
        {
          "internalType": "int128",
          "name": "_num",
          "type": "int128"
        },
        {
          "internalType": "string",
          "name": "_type",
          "type": "string"
        },
        {
          "internalType": "int16",
          "name": "_roy",
          "type": "int16"
        },
        {
          "internalType": "string",
          "name": "_ipfs",
          "type": "string"
        },
        {
          "internalType": "string",
          "name": "_des",
          "type": "string"
        },
        {
          "internalType": "string",
          "name": "_lik",
          "type": "string"
        }
      ],
      "name": "DeployedNFT",
      "outputs": [],
      "stateMutability": "nonpayable",
      "type": "function"
    },
    {
      "inputs": [
        {
          "internalType": "address payable",
          "name": "_creator",
          "type": "address"
        },
        {
          "internalType": "string",
          "name": "_ipfs",
          "type": "string"
        },
        {
          "internalType": "uint256",
          "name": "_price",
          "type": "uint256"
        },
        {
          "internalType": "int128",
          "name": "_id",
          "type": "int128"
        }
      ],
      "name": "BuyNFT",
      "outputs": [],
      "stateMutability": "payable",
      "type": "function",
      "payable": true
    },
    {
      "inputs": [
        {
          "internalType": "address payable",
          "name": "from",
          "type": "address"
        },
        {
          "internalType": "address payable",
          "name": "_creator",
          "type": "address"
        },
        {
          "internalType": "int128",
          "name": "_nftid",
          "type": "int128"
        }
      ],
      "name": "ResellNFT",
      "outputs": [],
      "stateMutability": "payable",
      "type": "function",
      "payable": true
    }
  ],
  "bytecode": "0x608060405234801561001057600080fd5b5033600360006101000a81548173ffffffffffffffffffffffffffffffffffffffff021916908373ffffffffffffffffffffffffffffffffffffffff16021790555061134b806100616000396000f3fe6080604052600436106100dd5760003560e01c80635aabb8a61161007f578063b3cea21711610059578063b3cea21714610270578063b87f04041461029b578063bb0602cd146102c6578063f03c0db8146102f1576100dd565b80635aabb8a6146101ef5780638191745f1461021a5780639dfde20114610245576100dd565b80634237c65b116100bb5780634237c65b146101525780634a2c8b101461017d5780634d751d4b146101a85780634fa747dd146101c4576100dd565b8063119ca631146100e2578063124539dd1461010b578063274909a014610136575b600080fd5b3480156100ee57600080fd5b5061010960048036038101906101049190610bf1565b61031c565b005b34801561011757600080fd5b506101206104eb565b60405161012d9190610d9f565b60405180910390f35b610150600480360381019061014b9190610b27565b610511565b005b34801561015e57600080fd5b50610167610613565b6040516101749190610e67565b60405180910390f35b34801561018957600080fd5b50610192610626565b60405161019f9190610f5c565b60405180910390f35b6101c260048036038101906101bd9190610b76565b6106b4565b005b3480156101d057600080fd5b506101d9610740565b6040516101e69190610f41565b60405180910390f35b3480156101fb57600080fd5b50610204610753565b6040516102119190610d9f565b60405180910390f35b34801561022657600080fd5b5061022f610779565b60405161023c9190610f5c565b60405180910390f35b34801561025157600080fd5b5061025a610807565b6040516102679190610f7e565b60405180910390f35b34801561027c57600080fd5b5061028561080d565b6040516102929190610e67565b60405180910390f35b3480156102a757600080fd5b506102b061081e565b6040516102bd9190610f5c565b60405180910390f35b3480156102d257600080fd5b506102db6108ac565b6040516102e89190610f5c565b60405180910390f35b3480156102fd57600080fd5b5061030661093a565b6040516103139190610f5c565b60405180910390f35b60008081819054906101000a9004600f0b8092919061033a906111b3565b91906101000a8154816fffffffffffffffffffffffffffffffff0219169083600f0b6fffffffffffffffffffffffffffffffff1602179055505033600360006101000a81548173ffffffffffffffffffffffffffffffffffffffff021916908373ffffffffffffffffffffffffffffffffffffffff1602179055508660018190555085600260006101000a8154816fffffffffffffffffffffffffffffffff0219169083600f0b6fffffffffffffffffffffffffffffffff160217905550876009908051906020019061040e9291906109c8565b5084600590805190602001906104259291906109c8565b5083600a60006101000a81548161ffff021916908360010b61ffff160217905550826007908051906020019061045c9291906109c8565b5081600690805190602001906104739291906109c8565b50806008908051906020019061048a9291906109c8565b507f622b062634c3e8dd59a3118648584d15be37c9f56229adaafbcc6786141e0d5360008054906101000a9004600f0b3389898c8a8a8a8a8a6040516104d99a99989796959493929190610e82565b60405180910390a15050505050505050565b600360009054906101000a900473ffffffffffffffffffffffffffffffffffffffff1681565b8273ffffffffffffffffffffffffffffffffffffffff166108fc603c60643461053a9190611016565b6105449190611047565b9081150290604051600060405180830381858888f1935050505015801561056f573d6000803e3d6000fd5b508173ffffffffffffffffffffffffffffffffffffffff166108fc60286064346105999190611016565b6105a39190611047565b9081150290604051600060405180830381858888f193505050501580156105ce573d6000803e3d6000fd5b507f0fe1c9806317708a911196645401d9c7bbc61632813b2b702a5973f9ea8014473383853485604051610606959493929190610dba565b60405180910390a1505050565b600260009054906101000a9004600f0b81565b6005805461063390611181565b80601f016020809104026020016040519081016040528092919081815260200182805461065f90611181565b80156106ac5780601f10610681576101008083540402835291602001916106ac565b820191906000526020600020905b81548152906001019060200180831161068f57829003601f168201915b505050505081565b8373ffffffffffffffffffffffffffffffffffffffff166108fc349081150290604051600060405180830381858888f193505050501580156106fa573d6000803e3d6000fd5b507fec3f5ab481d8a78f5607c1dcd11597119ea9da61885865c2d8b74656f97fbe373385858585604051610732959493929190610e0d565b60405180910390a150505050565b600a60009054906101000a900460010b81565b600460009054906101000a900473ffffffffffffffffffffffffffffffffffffffff1681565b6006805461078690611181565b80601f01602080910402602001604051908101604052809291908181526020018280546107b290611181565b80156107ff5780601f106107d4576101008083540402835291602001916107ff565b820191906000526020600020905b8154815290600101906020018083116107e257829003601f168201915b505050505081565b60015481565b60008054906101000a9004600f0b81565b6009805461082b90611181565b80601f016020809104026020016040519081016040528092919081815260200182805461085790611181565b80156108a45780601f10610879576101008083540402835291602001916108a4565b820191906000526020600020905b81548152906001019060200180831161088757829003601f168201915b505050505081565b600880546108b990611181565b80601f01602080910402602001604051908101604052809291908181526020018280546108e590611181565b80156109325780601f1061090757610100808354040283529160200191610932565b820191906000526020600020905b81548152906001019060200180831161091557829003601f168201915b505050505081565b6007805461094790611181565b80601f016020809104026020016040519081016040528092919081815260200182805461097390611181565b80156109c05780601f10610995576101008083540402835291602001916109c0565b820191906000526020600020905b8154815290600101906020018083116109a357829003601f168201915b505050505081565b8280546109d490611181565b90600052602060002090601f0160209004810192826109f65760008555610a3d565b82601f10610a0f57805160ff1916838001178555610a3d565b82800160010185558215610a3d579182015b82811115610a3c578251825591602001919060010190610a21565b5b509050610a4a9190610a4e565b5090565b5b80821115610a67576000816000905550600101610a4f565b5090565b6000610a7e610a7984610fca565b610f99565b905082815260208101848484011115610a9657600080fd5b610aa184828561113f565b509392505050565b600081359050610ab8816112b9565b92915050565b600081359050610acd816112d0565b92915050565b600081359050610ae2816112e7565b92915050565b600082601f830112610af957600080fd5b8135610b09848260208601610a6b565b91505092915050565b600081359050610b21816112fe565b92915050565b600080600060608486031215610b3c57600080fd5b6000610b4a86828701610aa9565b9350506020610b5b86828701610aa9565b9250506040610b6c86828701610abe565b9150509250925092565b60008060008060808587031215610b8c57600080fd5b6000610b9a87828801610aa9565b945050602085013567ffffffffffffffff811115610bb757600080fd5b610bc387828801610ae8565b9350506040610bd487828801610b12565b9250506060610be587828801610abe565b91505092959194509250565b600080600080600080600080610100898b031215610c0e57600080fd5b600089013567ffffffffffffffff811115610c2857600080fd5b610c348b828c01610ae8565b9850506020610c458b828c01610b12565b9750506040610c568b828c01610abe565b965050606089013567ffffffffffffffff811115610c7357600080fd5b610c7f8b828c01610ae8565b9550506080610c908b828c01610ad3565b94505060a089013567ffffffffffffffff811115610cad57600080fd5b610cb98b828c01610ae8565b93505060c089013567ffffffffffffffff811115610cd657600080fd5b610ce28b828c01610ae8565b92505060e089013567ffffffffffffffff811115610cff57600080fd5b610d0b8b828c01610ae8565b9150509295985092959890939650565b610d2481611109565b82525050565b610d33816110a1565b82525050565b610d42816110c5565b82525050565b610d51816110d2565b82525050565b6000610d6282610ffa565b610d6c8185611005565b9350610d7c81856020860161114e565b610d85816112a8565b840191505092915050565b610d99816110ff565b82525050565b6000602082019050610db46000830184610d2a565b92915050565b600060a082019050610dcf6000830188610d2a565b610ddc6020830187610d1b565b610de96040830186610d1b565b610df66060830185610d90565b610e036080830184610d39565b9695505050505050565b600060a082019050610e226000830188610d2a565b610e2f6020830187610d1b565b8181036040830152610e418186610d57565b9050610e506060830185610d90565b610e5d6080830184610d39565b9695505050505050565b6000602082019050610e7c6000830184610d39565b92915050565b600061014082019050610e98600083018d610d39565b610ea5602083018c610d2a565b610eb2604083018b610d90565b610ebf606083018a610d39565b8181036080830152610ed18189610d57565b905081810360a0830152610ee58188610d57565b9050610ef460c0830187610d48565b81810360e0830152610f068186610d57565b9050818103610100830152610f1b8185610d57565b9050818103610120830152610f308184610d57565b90509b9a5050505050505050505050565b6000602082019050610f566000830184610d48565b92915050565b60006020820190508181036000830152610f768184610d57565b905092915050565b6000602082019050610f936000830184610d90565b92915050565b6000604051905081810181811067ffffffffffffffff82111715610fc057610fbf611279565b5b8060405250919050565b600067ffffffffffffffff821115610fe557610fe4611279565b5b601f19601f8301169050602081019050919050565b600081519050919050565b600082825260208201905092915050565b6000611021826110ff565b915061102c836110ff565b92508261103c5761103b61121b565b5b828204905092915050565b6000611052826110ff565b915061105d836110ff565b9250817fffffffffffffffffffffffffffffffffffffffffffffffffffffffffffffffff0483118215151615611096576110956111ec565b5b828202905092915050565b60006110ac826110df565b9050919050565b60006110be826110df565b9050919050565b600081600f0b9050919050565b60008160010b9050919050565b600073ffffffffffffffffffffffffffffffffffffffff82169050919050565b6000819050919050565b60006111148261111b565b9050919050565b60006111268261112d565b9050919050565b6000611138826110df565b9050919050565b82818337600083830152505050565b60005b8381101561116c578082015181840152602081019050611151565b8381111561117b576000848401525b50505050565b6000600282049050600182168061119957607f821691505b602082108114156111ad576111ac61124a565b5b50919050565b60006111be826110c5565b91506f7fffffffffffffffffffffffffffffff8214156111e1576111e06111ec565b5b600182019050919050565b7f4e487b7100000000000000000000000000000000000000000000000000000000600052601160045260246000fd5b7f4e487b7100000000000000000000000000000000000000000000000000000000600052601260045260246000fd5b7f4e487b7100000000000000000000000000000000000000000000000000000000600052602260045260246000fd5b7f4e487b7100000000000000000000000000000000000000000000000000000000600052604160045260246000fd5b6000601f19601f8301169050919050565b6112c2816110b3565b81146112cd57600080fd5b50565b6112d9816110c5565b81146112e457600080fd5b50565b6112f0816110d2565b81146112fb57600080fd5b50565b611307816110ff565b811461131257600080fd5b5056fea2646970667358221220e7803506190cbe30847a33b83352574b27605d794a26870f313156f32872b28e64736f6c63430008000033",
  "immutableReferences": {},
  "source": "// SPDX-License-Identifier: MIT\r\npragma solidity ^0.8.0;\r\n\r\n\r\ncontract NFTProduct {\r\n    int128 public ID;  \r\n    uint256 public Price; \r\n    int128 public Num ; \r\n    address public CreateHash;\r\n    address public UserHash ; \r\n    string public ArtWorkType ; \r\n    string public Description ;\r\n    string public Ipfshash ;\r\n    string public Link ;\r\n    string public Title ;   \r\n    int16 public Royalties ; \r\n    \r\n\r\n    constructor(){\r\n        CreateHash = msg.sender ;\r\n    }\r\n\r\n    \r\n    // NFT\r\n    function DeployedNFT(string memory _title , uint256 _price , int128 _num , string memory _type , int16 _roy ,string memory _ipfs , string memory _des  , string memory _lik )  public   \r\n    {\r\n        ID ++ ; \r\n        CreateHash = msg.sender ; \r\n        Price = _price ; \r\n        Num = _num ; \r\n        Title = _title; \r\n        ArtWorkType = _type ;\r\n        Royalties = _roy ;      \r\n        Ipfshash = _ipfs ; \r\n        Description = _des ; \r\n        Link = _lik ; \r\n        emit Success(ID, msg.sender, _price ,_num, _title , _type , _roy ,_ipfs , _des , _lik );\r\n    }\r\n    \r\n    // NFT\r\n    function BuyNFT(address payable _creator, string memory _ipfs , uint256 _price, int128 _id  ) payable  public {    \r\n        payable(_creator).transfer(msg.value); // \r\n        emit BuySuccess(msg.sender,_creator , _ipfs , _price , _id );\r\n    }\r\n\r\n    // NFT\r\n    function ResellNFT(address payable from, address payable _creator , int128 _nftid) payable public {   \r\n        payable(from).transfer(msg.value / 100 * 60); // \r\n        payable(_creator).transfer(msg.value / 100 * 40 ) ; // \r\n        emit ResellSuccess(msg.sender,_creator ,from , msg.value ,_nftid );\r\n    }\r\n    // NFT \r\n    event ResellSuccess(\r\n        address user ,\r\n        address creator,\r\n        address from ,        \r\n        uint256 _price,\r\n        int128 _id \r\n    );\r\n    \r\n    // \r\n    event BuySuccess(\r\n        address user,\r\n        address creater,\r\n        string _ipfs ,\r\n        uint _price,\r\n        int128 _id \r\n    );\r\n    // \r\n    event Success(\r\n       int128 ID, \r\n       address CreateHash ,\r\n       uint256 Price, \r\n       int128 Num , \r\n       string Title,\r\n       string ArtWorkType,\r\n       int16 Royalties, \r\n       string IpfsHash,\r\n       string Description,\r\n       string Link\r\n    );\r\n\r\n}",
  "sourcePath": "E:\\Project\\NFTMarketPlace\\frontend\\src\\SmartContract\\contracts\\NFTProduct.sol",
  "compiler": {
    "name": "solc",
    "version": "0.8.0+commit.c7dfd78e.Emscripten.clang"
  },
  "schemaVersion": "3.4.4",
  "updatedAt": "2022-03-16T13:39:43.100Z",
  "networkType": "ethereum",
  "devdoc": {
    "kind": "dev",
    "methods": {},
    "version": 1
  },
  "userdoc": {
    "kind": "user",
    "methods": {},
    "version": 1
  }
}